:060000000A128A11122809
:10000800FE00030EF4000408F5000A08F600831247
:1000180003137F08F7000A128A1135280A128A1179
:100028001528F801F901A001A101A201A3010A12F2
:100038008A11CD200A128A11F0000A128A11CE20E4
:100048000A128A11F1000A128A11CF200A128A11A3
:10005800F2000A128A11D020F30083010A128A11D1
:1000680095280C1C8A280C1028088F018F07270850
:100078008E018E0701308C0073087902031D462813
:100088007208780203184A2805144B2805107108CD
:100098007902031D51287008780203185528851421
:1000A800562885100130F8070318F90A0030F907B7
:1000B80005307902DD3003197802031C6B28F8013A
:1000C800F9010130A0070318A10A0030A107003088
:1000D8002102643003192002031C8A283230720678
:1000E8007304031D7928AA307A283230F2000030D0
:1000F800F300323070067104031D8428AA30852865
:100108003230F0000030F100A001A1017708FF00B3
:1001180076088A0075088400740E8300FE0E7E0E31
:100128000900831203139F011630831603139F00DF
:100138008501073083120313900001308C000130D1
:10014800831603138C00C0308B0083308312031393
:10015800A700FF30A80028088F018F0727088E0105
:100168008E076430F2000030F3006430F000003095
:10017800F1001A3083120313A6005E30A500863002
:10018800A400A40BC528A50BC528A60BC5280000EC
:0A019800B52832340034323400344C
:02400E003AFD79
:00000001FF
