:060000000A128A11122809
:10000800FE00030EF4000408F5000A08F600831247
:1000180003137F08F7000A128A1137280A128A1177
:100028001528F801F901A001A101A201A301A40169
:10003800A5010A128A11E2200A128A11F0000A1296
:100048008A11E3200A128A11F1000A128A11E420A7
:100058000A128A11F2000A128A11E520F3008301BC
:100068000A128A11A9280C1C9E280C102A088F0134
:100078008F0729088E018E0701308C0073087902DA
:10008800031D48287208780203184C2805144D28C7
:10009800051071087902031D5328700878020318A7
:1000A80057288514582885100130F8070318F90ACD
:1000B8000030F90705307902DD3003197802031C96
:1000C8007328F801F9010130A0070318A10A0030CC
:1000D800A1070130A2070318A30A0030A3070030C4
:1000E8002102643003192002031C8728323072066B
:1000F8007304031D8128AA3082283230F2000030B0
:10010800F300A001A10100302302463003192202A6
:10011800031C9B283C3070067104031D95288C3005
:1001280096283C30F0000030F100A201A30107142A
:10013800871007117708FF0076088A007508840081
:10014800740E8300FE0E7E0E0900831203139F01B6
:100158001630831603139F00850187010730831229
:100168000313900001308C000130831603138C00B8
:10017800C0308B00833083120313A900FF30AA001C
:100188002A088F018F0729088E018E076430F20034
:100198000030F3006430F0000030F1001A308312B0
:1001A8000313A8005E30A7008630A600A60BDA2845
:1001B800A70BDA28A80BDA280000CA283234003442
:0401C8003234003499
:02400E003AFD79
:00000001FF
